:020000040000FA
:0400000057EF00F0C6
:100008002B002B002B002B002B002B002B002B0090
:100018002B002B002B002B002B002B002B002B0080
:100028002B002B002B002B002B002B002B002B0070
:100038002B002B002B00E1092B002B002B002B00A1
:100048002B002B002B002B002B002B002B002B0050
:100058002B002B002B002B002B002B002B002B0040
:100068002B002B002B002B002B002B002B002B0030
:100078002B002B002B002B002B002B002B002B0020
:100088002B002B002B002B002B002B002B002B0010
:100098002B002B002B002B002B002B002B002B0000
:0A00A8002B002B00FF0034EF13F0D3
:102000000061000000620000007300000064000036
:10201000000000000061006200640073000020EE18
:1020200009F00150D9260250DA22DFA01AEF10F091
:102030001CEF10F01EEF10F0DEEF10F07B0E031817
:10204000D8A425EF10F027EF10F031EF10F060006A
:1020500007F0D9FF60000BF0DAFF010EDF6EDEEF54
:1020600010F0600007F0D9FF60000BF0DAFFDE042B
:10207000D8B43DEF10F03FEF10F06CEF10F06000BF
:1020800007F0D9FF60000BF0DAFF020EDE18D8B4BB
:102090004CEF10F04EEF10F06CEF10F0600007F016
:1020A000D9FF60000BF0DAFF030EDE18D8B45BEF47
:1020B00010F05DEF10F06CEF10F0600007F0D9FF4A
:1020C00060000BF0DAFF040EDE18D8A46AEF10F0FF
:1020D0006CEF10F086EF10F0600007F0D9FF6000A1
:1020E0000BF0DAFFDF50046E04500124D96E000EAD
:1020F0000220DA6E60000FF0DFFF600007F0D9FF0A
:1021000060000BF0DAFFDF2ADEEF10F0600007F06E
:10211000D9FF60000BF0DAFF050EDE18D8B493EF9C
:1021200010F095EF10F0A4EF10F0600007F0D9FF69
:1021300060000BF0DAFF060EDE18D8A4A2EF10F054
:10214000A4EF10F0ADEF10F0600007F0D9FF6000D1
:102150000BF0DAFFDF2ADEEF10F0600007F0D9FFA6
:1021600060000BF0DAFF070EDE18D8A4BAEF10F00B
:10217000BCEF10F0D6EF10F07D0E0318D8A4C3EF1B
:1021800010F0C5EF10F0CCEF10F020EE09F0015088
:10219000D9260250DA22DF80600007F0D9FF600004
:1021A0000BF0DAFF000EDF6EDEEF10F0600007F0DC
:1021B000D9FF60000BF0DAFF000EDF6E1200000E98
:1021C0002F6E000E2E6E20EE02F02250D9262350E4
:1021D000DA22DF505AEC13F0246E2450640DF350D1
:1021E0002E26F4502F2220EE03F02250D926235021
:1021F000DA22DF505AEC13F0246E24500A0DF3500B
:102200002E26F4502F2220EE04F02250D9262350FF
:10221000DA22DF505AEC13F0246E2450010DF350F3
:102220002E26F4502F222E4A2F2A20EE25F0080EBB
:10223000DE6AE806FDE27B0E256E20EE01F02250FC
:10224000D9262350DA22DF50266E000E116E640E5E
:10225000106E2EC00EF02FC00FF03CEC12F00EC02E
:1022600015F00FC016F0000E186E0A0E176EA8ECCF
:1022700012F01550300F276E000E116E0A0E106E00
:102280002EC00EF02FC00FF03CEC12F00EC015F077
:102290000FC016F0000E186E0A0E176EA8EC12F0A2
:1022A0001550300F286E2EC015F02FC016F0000EFE
:1022B000186E0A0E176EA8EC12F01550300F296E2A
:1022C0003D0E2A6E3D0E2B6E7D0E2C6E250E206E61
:1022D000000E216EEDEC11F0120037EC14F0C39AF1
:1022E0003A01509BBB8AF00E3D01F217820EF56F4A
:1022F000060EF66FBC9CC49C3A01609DC48E609F24
:10230000BB94C3945095130E166F140E0A6F170EDC
:10231000E56FE6693D01F451FC0B0209F46FF28BA5
:10232000F289F38F3901938742EC14F0D28EA30E19
:10233000316E570E306E020EE82EFED7302EFCD7CF
:10234000312EFAD700D03E0E226E000E236E1CEC0A
:1023500014F06B0E166E000E176E010E196EF40E51
:10236000186E75EC13F03E0E0E6E000E0F6E0CEC38
:1023700014F00009D8A4BFEF11F0C1EF11F0CFEFB6
:1023800011F06B0E166E000E176EDAEC12F00009EB
:10239000D8B4CDEF11F0CFEF11F0B3EF11F03E0E46
:1023A0000E6E000E0F6E0CEC14F00009D8B4DBEFCB
:1023B00011F0DDEF11F097EF11F03E0E226E000EDE
:1023C000236EDFEC10F03E0E0E6E000E0F6E76ECFC
:1023D00012F097EF11F057EF00F0480E166E000E56
:1023E000176EDAEC12F00009D8B4F9EF11F0FBEF38
:1023F00011F0EDEF11F01EEF12F03901A3A903EF78
:1024000012F005EF12F0FDEF11F0600083F0F6FF1F
:10241000600087F0F7FF000EF86E1F0EF76403D020
:102420000800F55007D06F00DBFFE1FF6F00DFFF12
:10243000E2FFE7503D01EA6F204A212A600083F065
:10244000F6FF600087F0F7FF000EF86E1F0EF764CE
:1024500003D00800F55007D06F00DBFFE1FF6F00ED
:10246000DFFFE2FFE7500009D8A439EF12F03BEF9D
:1024700012F0FDEF11F01200000E146E000E136E3C
:1024800010501110D8B447EF12F049EF12F071EF6D
:1024900012F0010E126E51EF12F0D8901036113674
:1024A000122A11AE56EF12F058EF12F04DEF12F063
:1024B000D8901336143610500E5C11500F58D8A017
:1024C00064EF12F066EF12F06BEF12F010500E5E38
:1024D00011500F5A1380D89011321032122E58EF2B
:1024E00012F013C00EF014C00FF0120060003BF0A9
:1024F000D9FF60003FF0DAFF000EDF6E20EE09F03A
:102500000E50D9260F50DA22DF90000E136E000E07
:10251000126E12500E24106E13500F20116E010E09
:102520001024D96E000E1120DA6E000EDF6E124AF2
:10253000132A13BEA5EF12F0135009E1080E125C26
:10254000D8A0A5EF12F0A7EF12F089EF12F0120059
:1025500017501810D8B4AFEF12F0B1EF12F0D5EF5A
:1025600012F0010E196EB9EF12F0D8901736183626
:10257000192A18AEBEEF12F0C0EF12F0B5EF12F04C
:102580001750155C18501658D8A0C9EF12F0CBEFB1
:1025900012F0CFEF12F01750155E1850165AD8905F
:1025A00018321732192EC0EF12F015C015F016C0F0
:1025B00016F01200EAEC13F00EC01EF00FC01FF070
:1025C00020EE02F01650D9261750DA2260005BF098
:1025D000E1FF60005FF0E2FF6F0098FF1AF06F000C
:1025E00094FF1BF01EC01CF01FC01DF01A501C5E93
:1025F0001B501D5ADE501C5CDE501D58D8B003EF36
:1026000013F006EF13F0010E07EF13F0000E1200A7
:10261000000EBA6E000EBB6E000EBC6EC268C368C0
:10262000C4683A01606950694069000E816F000E0C
:10263000516F000E416F000E616F000E5A6F000E59
:102640005B6F000E6A6F000E6B6F000E426F000E24
:10265000526F000E626F436953696369446954693C
:102660006469080E846F1200800EF66E280EF76EF5
:10267000000EF86E00EE4CF010EE04F009006F0052
:10268000D7FFEEFFE550E150F9E100EE60F0090EF2
:10269000EE6AE806FDE100EE32F01A0EEE6AE80698
:1026A000FDE1080ED56E000ED66E000ED76E00014D
:1026B0006DEF11F00F6E0F50D00F0E6E3F0E0F64C6
:1026C00064EF13F066EF13F069EF13F00F50C00FD3
:1026D0000E6E090E0E646FEF13F071EF13F073EFCF
:1026E00013F0000E0E6E0E501200EAEC13F06000B4
:1026F0005BF0D9FF60005FF0DAFF60003BF0DEFFC7
:1027000060003FF0DDFF20EE02F01650D926175092
:10271000DA22600063F0DEFF600067F0DDFF120088
:10272000FBEC13F0600027F0D9FF60002BF0DAFF1C
:10273000600007F0DEFF60000BF0DDFF20EE02F02E
:102740000950D9260A50DA2260002FF0DEFF60001F
:1027500033F0DDFF12004E0EB96EB768FE0EB66E96
:10276000B6506F00DCFE0EF00F6A0EC00FF00E6A5E
:102770000E10506E0F50516E3901A39F900EB86E1F
:02278000120045
:102784006F00A0F70DF03E0E016E000E026E0DC03C
:1027940003F00FEC10F0480E096E000E0A6E000EE6
:1027A4000C6E0A0E0B6E90EC13F01100000E390142
:1027B400C06F000EC16F000EC26F000EC36F000E1B
:1027C400C46F000EC56F000EC66F000EC76F1200F7
:1027D4006F00D8FE14F06F00DCFE15F01550106E7B
:1027E4001450126E10C013F012C00EF013C00FF08C
:1027F40012006F00D8FE07F06F00DCFE08F00850EE
:10280400036E0750056E03C006F005C001F006C054
:1028140002F0120020EE09F00E50D9260F50DA22F1
:10282400DFB017EF14F01AEF14F0010E1BEF14F0E1
:10283400000E12004CC024F04DC025F04EC026F00E
:102844004FC027F0240E206E000E216EEDEC11F027
:102854001200600E3901D96F000EDB6F000EDD6FC0
:10286400080EDF6F000EDE6F1200D8EC13F008ECD8
:1028740013F02BEC14F0ABEC13F012007B417D0051
:04288400B88E1200F8
:020000040020DA
:10000000FF0FFF0FFF0FFF0FFF0FFF0FFF0FFF0F80
:020000040030CA
:0A0000008CFFF8FF9FFFFFDFFFFFFA
:00000001FF
